{
  "contractName": "FunctionModule",
  "abi": [
    {
      "inputs": [
        {
          "internalType": "address",
          "name": "",
          "type": "address"
        }
      ],
      "name": "balances",
      "outputs": [
        {
          "internalType": "int256",
          "name": "",
          "type": "int256"
        }
      ],
      "stateMutability": "view",
      "type": "function",
      "constant": true
    },
    {
      "inputs": [],
      "name": "getvalue",
      "outputs": [
        {
          "internalType": "uint256",
          "name": "",
          "type": "uint256"
        }
      ],
      "stateMutability": "view",
      "type": "function",
      "constant": true
    },
    {
      "inputs": [],
      "name": "add",
      "outputs": [
        {
          "internalType": "int256",
          "name": "addition",
          "type": "int256"
        }
      ],
      "stateMutability": "pure",
      "type": "function",
      "constant": true
    }
  ],
  "bytecode": "0x6080604052600a60015534801561001557600080fd5b506102e5806100256000396000f3fe608060405234801561001057600080fd5b50600436106100415760003560e01c806327e235e3146100465780634f2be91f1461007657806369bd01c414610094575b600080fd5b610060600480360381019061005b9190610157565b6100b2565b60405161006d919061019d565b60405180910390f35b61007e6100ca565b60405161008b919061019d565b60405180910390f35b61009c6100ea565b6040516100a991906101d1565b60405180910390f35b60006020528060005260406000206000915090505481565b600080600a905060006014905080826100e3919061021b565b9250505090565b6000600154905090565b600080fd5b600073ffffffffffffffffffffffffffffffffffffffff82169050919050565b6000610124826100f9565b9050919050565b61013481610119565b811461013f57600080fd5b50565b6000813590506101518161012b565b92915050565b60006020828403121561016d5761016c6100f4565b5b600061017b84828501610142565b91505092915050565b6000819050919050565b61019781610184565b82525050565b60006020820190506101b2600083018461018e565b92915050565b6000819050919050565b6101cb816101b8565b82525050565b60006020820190506101e660008301846101c2565b92915050565b7f4e487b7100000000000000000000000000000000000000000000000000000000600052601160045260246000fd5b600061022682610184565b915061023183610184565b9250817f7fffffffffffffffffffffffffffffffffffffffffffffffffffffffffffffff0383136000831215161561026c5761026b6101ec565b5b817f80000000000000000000000000000000000000000000000000000000000000000383126000831216156102a4576102a36101ec565b5b82820190509291505056fea264697066735822122060aca469cb0806ecfe2bd2aa4db8ad02900bd59c54bd5353f379dc6ded04f40764736f6c634300080f0033",
  "immutableReferences": {},
  "source": "// SPDX-License-Identifier: MIT\r\npragma solidity ^0.8.15;\r\n\r\ncontract FunctionModule{\r\n    mapping(address=>int)public balances;\r\n    uint value = 10;\r\n    function getvalue() public view returns(uint){\r\n        return value;\r\n    }\r\n\r\n    function add() public pure returns(int addition){\r\n        int a = 10;\r\n        int b = 20;\r\n        addition = a + b;\r\n    }\r\n\r\n   \r\n}",
  "sourcePath": "C:\\Users\\SharvanModi\\Desktop\\TS\\metacraft\\MetaCrafters-function-Challenges\\contracts\\FunctionModule.sol",
  "compiler": {
    "name": "solc",
    "version": "0.8.15+commit.e14f2714.Emscripten.clang"
  },
  "schemaVersion": "3.4.8",
  "updatedAt": "2023-01-31T19:28:27.753Z",
  "networkType": "ethereum",
  "devdoc": {
    "kind": "dev",
    "methods": {},
    "version": 1
  },
  "userdoc": {
    "kind": "user",
    "methods": {},
    "version": 1
  }
}